{
  "contractName": "ContractIF",
  "abi": [
    {
      "inputs": [
        {
          "internalType": "address",
          "name": "",
          "type": "address"
        }
      ],
      "name": "co2",
      "outputs": [
        {
          "internalType": "uint256",
          "name": "",
          "type": "uint256"
        }
      ],
      "stateMutability": "view",
      "type": "function"
    },
    {
      "inputs": [],
      "name": "count",
      "outputs": [
        {
          "internalType": "uint256",
          "name": "",
          "type": "uint256"
        }
      ],
      "stateMutability": "view",
      "type": "function"
    },
    {
      "inputs": [
        {
          "internalType": "address",
          "name": "",
          "type": "address"
        }
      ],
      "name": "kwatt",
      "outputs": [
        {
          "internalType": "uint256",
          "name": "",
          "type": "uint256"
        }
      ],
      "stateMutability": "view",
      "type": "function"
    },
    {
      "inputs": [],
      "name": "getSender",
      "outputs": [
        {
          "internalType": "address",
          "name": "",
          "type": "address"
        }
      ],
      "stateMutability": "view",
      "type": "function"
    },
    {
      "inputs": [
        {
          "internalType": "address",
          "name": "add",
          "type": "address"
        },
        {
          "internalType": "uint256",
          "name": "value",
          "type": "uint256"
        }
      ],
      "name": "setKwatt",
      "outputs": [],
      "stateMutability": "nonpayable",
      "type": "function"
    },
    {
      "inputs": [
        {
          "internalType": "address",
          "name": "add",
          "type": "address"
        },
        {
          "internalType": "uint256",
          "name": "value",
          "type": "uint256"
        }
      ],
      "name": "setCo2",
      "outputs": [],
      "stateMutability": "nonpayable",
      "type": "function"
    },
    {
      "inputs": [
        {
          "internalType": "address",
          "name": "add",
          "type": "address"
        }
      ],
      "name": "getCo2",
      "outputs": [
        {
          "internalType": "uint256",
          "name": "",
          "type": "uint256"
        }
      ],
      "stateMutability": "nonpayable",
      "type": "function"
    },
    {
      "inputs": [
        {
          "internalType": "address",
          "name": "add",
          "type": "address"
        }
      ],
      "name": "getKwatt",
      "outputs": [
        {
          "internalType": "uint256",
          "name": "",
          "type": "uint256"
        }
      ],
      "stateMutability": "nonpayable",
      "type": "function"
    },
    {
      "inputs": [
        {
          "internalType": "address",
          "name": "add1",
          "type": "address"
        },
        {
          "internalType": "address",
          "name": "add2",
          "type": "address"
        },
        {
          "internalType": "uint256",
          "name": "value",
          "type": "uint256"
        }
      ],
      "name": "sendEthForKwatt",
      "outputs": [],
      "stateMutability": "nonpayable",
      "type": "function"
    }
  ],
  "bytecode": "0x60806040526000805534801561001457600080fd5b506106c8806100246000396000f3fe608060405234801561001057600080fd5b50600436106100935760003560e01c8063a4876f0e11610066578063a4876f0e14610120578063bf70bf781461013c578063c41a0e651461016c578063f240103c14610188578063fe64e617146101b857610093565b806306661abd146100985780632777792c146100b65780635e01eb5a146100e657806378a1e4b714610104575b600080fd5b6100a06101e8565b6040516100ad919061041f565b60405180910390f35b6100d060048036038101906100cb919061049d565b6101ee565b6040516100dd919061041f565b60405180910390f35b6100ee610237565b6040516100fb91906104d9565b60405180910390f35b61011e60048036038101906101199190610520565b61023f565b005b61013a60048036038101906101359190610573565b6102fd565b005b6101566004803603810190610151919061049d565b610345565b604051610163919061041f565b60405180910390f35b61018660048036038101906101819190610573565b61038e565b005b6101a2600480360381019061019d919061049d565b6103d6565b6040516101af919061041f565b60405180910390f35b6101d260048036038101906101cd919061049d565b6103ee565b6040516101df919061041f565b60405180910390f35b60005481565b6000600260008373ffffffffffffffffffffffffffffffffffffffff1673ffffffffffffffffffffffffffffffffffffffff168152602001908152602001600020549050919050565b600033905090565b60138161024c91906105e2565b600160008473ffffffffffffffffffffffffffffffffffffffff1673ffffffffffffffffffffffffffffffffffffffff168152602001908152602001600020600082825461029a919061063c565b925050819055506001600260008573ffffffffffffffffffffffffffffffffffffffff1673ffffffffffffffffffffffffffffffffffffffff16815260200190815260200160002060008282546102f1919061063c565b92505081905550505050565b80600260008473ffffffffffffffffffffffffffffffffffffffff1673ffffffffffffffffffffffffffffffffffffffff168152602001908152602001600020819055505050565b6000600160008373ffffffffffffffffffffffffffffffffffffffff1673ffffffffffffffffffffffffffffffffffffffff168152602001908152602001600020549050919050565b80600160008473ffffffffffffffffffffffffffffffffffffffff1673ffffffffffffffffffffffffffffffffffffffff168152602001908152602001600020819055505050565b60026020528060005260406000206000915090505481565b60016020528060005260406000206000915090505481565b6000819050919050565b61041981610406565b82525050565b60006020820190506104346000830184610410565b92915050565b600080fd5b600073ffffffffffffffffffffffffffffffffffffffff82169050919050565b600061046a8261043f565b9050919050565b61047a8161045f565b811461048557600080fd5b50565b60008135905061049781610471565b92915050565b6000602082840312156104b3576104b261043a565b5b60006104c184828501610488565b91505092915050565b6104d38161045f565b82525050565b60006020820190506104ee60008301846104ca565b92915050565b6104fd81610406565b811461050857600080fd5b50565b60008135905061051a816104f4565b92915050565b6000806000606084860312156105395761053861043a565b5b600061054786828701610488565b935050602061055886828701610488565b92505060406105698682870161050b565b9150509250925092565b6000806040838503121561058a5761058961043a565b5b600061059885828601610488565b92505060206105a98582860161050b565b9150509250929050565b7f4e487b7100000000000000000000000000000000000000000000000000000000600052601160045260246000fd5b60006105ed82610406565b91506105f883610406565b9250817fffffffffffffffffffffffffffffffffffffffffffffffffffffffffffffffff0483118215151615610631576106306105b3565b5b828202905092915050565b600061064782610406565b915061065283610406565b9250827fffffffffffffffffffffffffffffffffffffffffffffffffffffffffffffffff03821115610687576106866105b3565b5b82820190509291505056fea26469706673582212204d67874392477277e244b2b29f0fe769997eaa536448af85e171adaede7a1bc364736f6c634300080a0033",
  "immutableReferences": {},
  "source": "pragma solidity ^0.8.10;\r\n\r\ncontract ContractIF {\r\n  uint public count = 0;\r\n\r\n  mapping(address => uint ) public kwatt;\r\n  mapping(address => uint ) public co2;\r\n\r\n     function getSender() public view\r\n            returns (address)\r\n    {\r\n        return msg.sender;\r\n    }\r\n\r\n    function setKwatt(address add, uint value) public {\r\n        kwatt[add] = value;\r\n    }\r\n\r\n    function setCo2(address add, uint value) public {\r\n        co2[add] = value;\r\n    }\r\n\r\n    function getCo2(address add) public returns (uint){\r\n        return co2[add];\r\n    }\r\n\r\n    function getKwatt(address add) public returns (uint){\r\n        return kwatt[add];\r\n    }\r\n\r\n    function sendEthForKwatt(address add1, address add2, uint value ) public {\r\n        kwatt[add2] += value*19;\r\n        co2[add1] += 1;\r\n    }\r\n\r\n}",
  "sourcePath": "C:\\Users\\elias.sohbi\\Documents\\blockchain-node\\blockchain-node-api\\contracts\\Contacts.sol",
  "compiler": {
    "name": "solc",
    "version": "0.8.10+commit.fc410830.Emscripten.clang"
  },
  "schemaVersion": "3.4.10",
  "updatedAt": "2022-11-29T12:44:21.120Z",
  "devdoc": {
    "kind": "dev",
    "methods": {},
    "version": 1
  },
  "userdoc": {
    "kind": "user",
    "methods": {},
    "version": 1
  }
}