{
  "contractName": "ContractIF",
  "abi": [
    {
      "anonymous": false,
      "inputs": [
        {
          "indexed": true,
          "internalType": "address",
          "name": "_seller",
          "type": "address"
        },
        {
          "indexed": true,
          "internalType": "address",
          "name": "_buyer",
          "type": "address"
        },
        {
          "indexed": false,
          "internalType": "uint256",
          "name": "_valueCo2",
          "type": "uint256"
        },
        {
          "indexed": false,
          "internalType": "uint256",
          "name": "_valueKwatt",
          "type": "uint256"
        },
        {
          "indexed": false,
          "internalType": "uint256",
          "name": "_valueEuro",
          "type": "uint256"
        }
      ],
      "name": "Confirmation",
      "type": "event"
    },
    {
      "inputs": [
        {
          "internalType": "address",
          "name": "",
          "type": "address"
        }
      ],
      "name": "co2",
      "outputs": [
        {
          "internalType": "uint256",
          "name": "",
          "type": "uint256"
        }
      ],
      "stateMutability": "view",
      "type": "function"
    },
    {
      "inputs": [],
      "name": "count",
      "outputs": [
        {
          "internalType": "uint256",
          "name": "",
          "type": "uint256"
        }
      ],
      "stateMutability": "view",
      "type": "function"
    },
    {
      "inputs": [
        {
          "internalType": "address",
          "name": "",
          "type": "address"
        }
      ],
      "name": "kwatt",
      "outputs": [
        {
          "internalType": "uint256",
          "name": "",
          "type": "uint256"
        }
      ],
      "stateMutability": "view",
      "type": "function"
    },
    {
      "inputs": [
        {
          "internalType": "address",
          "name": "_seller",
          "type": "address"
        },
        {
          "internalType": "address",
          "name": "_buyer",
          "type": "address"
        },
        {
          "internalType": "uint256",
          "name": "_valueCo2",
          "type": "uint256"
        },
        {
          "internalType": "uint256",
          "name": "_valueKwatt",
          "type": "uint256"
        },
        {
          "internalType": "uint256",
          "name": "_valueEuro",
          "type": "uint256"
        }
      ],
      "name": "confirmation",
      "outputs": [],
      "stateMutability": "nonpayable",
      "type": "function"
    },
    {
      "inputs": [],
      "name": "getSender",
      "outputs": [
        {
          "internalType": "address",
          "name": "",
          "type": "address"
        }
      ],
      "stateMutability": "view",
      "type": "function"
    },
    {
      "inputs": [
        {
          "internalType": "address",
          "name": "add",
          "type": "address"
        },
        {
          "internalType": "uint256",
          "name": "value",
          "type": "uint256"
        }
      ],
      "name": "setKwatt",
      "outputs": [],
      "stateMutability": "nonpayable",
      "type": "function"
    },
    {
      "inputs": [
        {
          "internalType": "address",
          "name": "add",
          "type": "address"
        },
        {
          "internalType": "uint256",
          "name": "value",
          "type": "uint256"
        }
      ],
      "name": "setCo2",
      "outputs": [],
      "stateMutability": "nonpayable",
      "type": "function"
    },
    {
      "inputs": [
        {
          "internalType": "address",
          "name": "add",
          "type": "address"
        }
      ],
      "name": "getCo2",
      "outputs": [
        {
          "internalType": "uint256",
          "name": "",
          "type": "uint256"
        }
      ],
      "stateMutability": "view",
      "type": "function"
    },
    {
      "inputs": [
        {
          "internalType": "address",
          "name": "add",
          "type": "address"
        }
      ],
      "name": "getKwatt",
      "outputs": [
        {
          "internalType": "uint256",
          "name": "",
          "type": "uint256"
        }
      ],
      "stateMutability": "view",
      "type": "function"
    },
    {
      "inputs": [
        {
          "internalType": "address",
          "name": "add1",
          "type": "address"
        },
        {
          "internalType": "address",
          "name": "add2",
          "type": "address"
        },
        {
          "internalType": "uint256",
          "name": "value",
          "type": "uint256"
        }
      ],
      "name": "sendEthForKwatt",
      "outputs": [],
      "stateMutability": "nonpayable",
      "type": "function"
    }
  ],
  "bytecode": "0x60806040526000805534801561001457600080fd5b50610811806100246000396000f3fe608060405234801561001057600080fd5b506004361061009e5760003560e01c8063a4876f0e11610066578063a4876f0e14610147578063bf70bf7814610163578063c41a0e6514610193578063f240103c146101af578063fe64e617146101df5761009e565b806306661abd146100a35780632777792c146100c15780635e01eb5a146100f157806378a1e4b71461010f5780638ee969ca1461012b575b600080fd5b6100ab61020f565b6040516100b891906104b6565b60405180910390f35b6100db60048036038101906100d69190610534565b610215565b6040516100e891906104b6565b60405180910390f35b6100f961025e565b6040516101069190610570565b60405180910390f35b610129600480360381019061012491906105b7565b610266565b005b6101456004803603810190610140919061060a565b610324565b005b610161600480360381019061015c9190610685565b610394565b005b61017d60048036038101906101789190610534565b6103dc565b60405161018a91906104b6565b60405180910390f35b6101ad60048036038101906101a89190610685565b610425565b005b6101c960048036038101906101c49190610534565b61046d565b6040516101d691906104b6565b60405180910390f35b6101f960048036038101906101f49190610534565b610485565b60405161020691906104b6565b60405180910390f35b60005481565b6000600260008373ffffffffffffffffffffffffffffffffffffffff1673ffffffffffffffffffffffffffffffffffffffff168152602001908152602001600020549050919050565b600033905090565b60138161027391906106f4565b600160008473ffffffffffffffffffffffffffffffffffffffff1673ffffffffffffffffffffffffffffffffffffffff16815260200190815260200160002060008282546102c1919061074e565b925050819055506001600260008573ffffffffffffffffffffffffffffffffffffffff1673ffffffffffffffffffffffffffffffffffffffff1681526020019081526020016000206000828254610318919061074e565b92505081905550505050565b8373ffffffffffffffffffffffffffffffffffffffff168573ffffffffffffffffffffffffffffffffffffffff167f288b13ba2f34a7bbf9060add27fe6e45f430f8b2408fbb0924ff60f908abfb28858585604051610385939291906107a4565b60405180910390a35050505050565b80600260008473ffffffffffffffffffffffffffffffffffffffff1673ffffffffffffffffffffffffffffffffffffffff168152602001908152602001600020819055505050565b6000600160008373ffffffffffffffffffffffffffffffffffffffff1673ffffffffffffffffffffffffffffffffffffffff168152602001908152602001600020549050919050565b80600160008473ffffffffffffffffffffffffffffffffffffffff1673ffffffffffffffffffffffffffffffffffffffff168152602001908152602001600020819055505050565b60026020528060005260406000206000915090505481565b60016020528060005260406000206000915090505481565b6000819050919050565b6104b08161049d565b82525050565b60006020820190506104cb60008301846104a7565b92915050565b600080fd5b600073ffffffffffffffffffffffffffffffffffffffff82169050919050565b6000610501826104d6565b9050919050565b610511816104f6565b811461051c57600080fd5b50565b60008135905061052e81610508565b92915050565b60006020828403121561054a576105496104d1565b5b60006105588482850161051f565b91505092915050565b61056a816104f6565b82525050565b60006020820190506105856000830184610561565b92915050565b6105948161049d565b811461059f57600080fd5b50565b6000813590506105b18161058b565b92915050565b6000806000606084860312156105d0576105cf6104d1565b5b60006105de8682870161051f565b93505060206105ef8682870161051f565b9250506040610600868287016105a2565b9150509250925092565b600080600080600060a08688031215610626576106256104d1565b5b60006106348882890161051f565b95505060206106458882890161051f565b9450506040610656888289016105a2565b9350506060610667888289016105a2565b9250506080610678888289016105a2565b9150509295509295909350565b6000806040838503121561069c5761069b6104d1565b5b60006106aa8582860161051f565b92505060206106bb858286016105a2565b9150509250929050565b7f4e487b7100000000000000000000000000000000000000000000000000000000600052601160045260246000fd5b60006106ff8261049d565b915061070a8361049d565b9250817fffffffffffffffffffffffffffffffffffffffffffffffffffffffffffffffff0483118215151615610743576107426106c5565b5b828202905092915050565b60006107598261049d565b91506107648361049d565b9250827fffffffffffffffffffffffffffffffffffffffffffffffffffffffffffffffff03821115610799576107986106c5565b5b828201905092915050565b60006060820190506107b960008301866104a7565b6107c660208301856104a7565b6107d360408301846104a7565b94935050505056fea264697066735822122060596bc7df95f30eced089a4bfbcef066bbeb6a5698c9aac9ae255e1e849ae2064736f6c634300080a0033",
  "immutableReferences": {},
  "source": "pragma solidity ^0.8.10;\r\n\r\ncontract ContractIF {\r\n  uint public count = 0;\r\n\r\n  mapping(address => uint ) public kwatt;\r\n  mapping(address => uint ) public co2;\r\n\r\n  event Confirmation(address indexed _seller, address indexed _buyer, uint _valueCo2, uint _valueKwatt, uint _valueEuro);\r\n   function confirmation(address _seller, address _buyer, uint _valueCo2, uint _valueKwatt, uint _valueEuro) public {      \r\n      emit Confirmation( _seller, _buyer, _valueCo2, _valueKwatt, _valueEuro);\r\n   }\r\n\r\n     function getSender() public view\r\n            returns (address)\r\n    {\r\n        return msg.sender;\r\n    }\r\n\r\n    function setKwatt(address add, uint value) public {\r\n        kwatt[add] = value;\r\n    }\r\n\r\n    function setCo2(address add, uint value) public {\r\n        co2[add] = value;\r\n    }\r\n\r\n    function getCo2(address add) public view returns (uint){\r\n        return co2[add];\r\n    }\r\n\r\n    function getKwatt(address add) public view returns (uint){\r\n        return kwatt[add];\r\n    }\r\n\r\n    function sendEthForKwatt(address add1, address add2, uint value ) public {\r\n        kwatt[add2] += value*19;\r\n        co2[add1] += 1;\r\n    }\r\n\r\n}",
  "sourcePath": "C:\\Users\\elias.sohbi\\Documents\\blockchain-node\\blockchain-node-api\\contracts\\Contacts.sol",
  "compiler": {
    "name": "solc",
    "version": "0.8.10+commit.fc410830.Emscripten.clang"
  },
  "schemaVersion": "3.4.10",
  "updatedAt": "2022-11-30T10:23:16.998Z",
  "devdoc": {
    "kind": "dev",
    "methods": {},
    "version": 1
  },
  "userdoc": {
    "kind": "user",
    "methods": {},
    "version": 1
  }
}