{
  "contractName": "Contacts",
  "abi": [
    {
      "inputs": [],
      "stateMutability": "nonpayable",
      "type": "constructor"
    },
    {
      "inputs": [
        {
          "internalType": "uint256",
          "name": "",
          "type": "uint256"
        }
      ],
      "name": "contacts",
      "outputs": [
        {
          "internalType": "uint256",
          "name": "id",
          "type": "uint256"
        },
        {
          "internalType": "string",
          "name": "name",
          "type": "string"
        },
        {
          "internalType": "string",
          "name": "phone",
          "type": "string"
        }
      ],
      "stateMutability": "view",
      "type": "function",
      "constant": true
    },
    {
      "inputs": [],
      "name": "count",
      "outputs": [
        {
          "internalType": "uint256",
          "name": "",
          "type": "uint256"
        }
      ],
      "stateMutability": "view",
      "type": "function",
      "constant": true
    },
    {
      "inputs": [],
      "name": "getSender",
      "outputs": [
        {
          "internalType": "address",
          "name": "",
          "type": "address"
        }
      ],
      "stateMutability": "view",
      "type": "function",
      "constant": true
    },
    {
      "inputs": [
        {
          "internalType": "string",
          "name": "_name",
          "type": "string"
        },
        {
          "internalType": "string",
          "name": "_phone",
          "type": "string"
        }
      ],
      "name": "createContact",
      "outputs": [],
      "stateMutability": "nonpayable",
      "type": "function"
    }
  ],
  "bytecode": "0x6080604052600080553480156200001557600080fd5b50620000926040518060400160405280600c81526020017f5a616661722053616c65656d00000000000000000000000000000000000000008152506040518060400160405280600981526020017f31323331323331323300000000000000000000000000000000000000000000008152506200009860201b60201c565b620002cd565b600080815480929190620000ac906200021a565b9190505550604051806060016040528060005481526020018381526020018281525060016000805481526020019081526020016000206000820151816000015560208201518160010190805190602001906200010a92919062000131565b5060408201518160020190805190602001906200012992919062000131565b509050505050565b8280546200013f9062000297565b90600052602060002090601f016020900481019282620001635760008555620001af565b82601f106200017e57805160ff1916838001178555620001af565b82800160010185558215620001af579182015b82811115620001ae57825182559160200191906001019062000191565b5b509050620001be9190620001c2565b5090565b5b80821115620001dd576000816000905550600101620001c3565b5090565b7f4e487b7100000000000000000000000000000000000000000000000000000000600052601160045260246000fd5b6000819050919050565b6000620002278262000210565b91507fffffffffffffffffffffffffffffffffffffffffffffffffffffffffffffffff8214156200025d576200025c620001e1565b5b600182019050919050565b7f4e487b7100000000000000000000000000000000000000000000000000000000600052602260045260246000fd5b60006002820490506001821680620002b057607f821691505b60208210811415620002c757620002c662000268565b5b50919050565b6107f080620002dd6000396000f3fe608060405234801561001057600080fd5b506004361061004c5760003560e01c806306661abd146100515780633dce49201461006f5780635e01eb5a1461008b578063e0f478cb146100a9575b600080fd5b6100596100db565b6040516100669190610372565b60405180910390f35b610089600480360381019061008491906104e7565b6100e1565b005b610093610174565b6040516100a091906105a0565b60405180910390f35b6100c360048036038101906100be91906105e7565b61017c565b6040516100d29392919061069c565b60405180910390f35b60005481565b6000808154809291906100f390610710565b91905055506040518060600160405280600054815260200183815260200182815250600160008054815260200190815260200160002060008201518160000155602082015181600101908051906020019061014f9291906102b6565b50604082015181600201908051906020019061016c9291906102b6565b509050505050565b600033905090565b60016020528060005260406000206000915090508060000154908060010180546101a590610788565b80601f01602080910402602001604051908101604052809291908181526020018280546101d190610788565b801561021e5780601f106101f35761010080835404028352916020019161021e565b820191906000526020600020905b81548152906001019060200180831161020157829003601f168201915b50505050509080600201805461023390610788565b80601f016020809104026020016040519081016040528092919081815260200182805461025f90610788565b80156102ac5780601f10610281576101008083540402835291602001916102ac565b820191906000526020600020905b81548152906001019060200180831161028f57829003601f168201915b5050505050905083565b8280546102c290610788565b90600052602060002090601f0160209004810192826102e4576000855561032b565b82601f106102fd57805160ff191683800117855561032b565b8280016001018555821561032b579182015b8281111561032a57825182559160200191906001019061030f565b5b509050610338919061033c565b5090565b5b8082111561035557600081600090555060010161033d565b5090565b6000819050919050565b61036c81610359565b82525050565b60006020820190506103876000830184610363565b92915050565b6000604051905090565b600080fd5b600080fd5b600080fd5b600080fd5b6000601f19601f8301169050919050565b7f4e487b7100000000000000000000000000000000000000000000000000000000600052604160045260246000fd5b6103f4826103ab565b810181811067ffffffffffffffff82111715610413576104126103bc565b5b80604052505050565b600061042661038d565b905061043282826103eb565b919050565b600067ffffffffffffffff821115610452576104516103bc565b5b61045b826103ab565b9050602081019050919050565b82818337600083830152505050565b600061048a61048584610437565b61041c565b9050828152602081018484840111156104a6576104a56103a6565b5b6104b1848285610468565b509392505050565b600082601f8301126104ce576104cd6103a1565b5b81356104de848260208601610477565b91505092915050565b600080604083850312156104fe576104fd610397565b5b600083013567ffffffffffffffff81111561051c5761051b61039c565b5b610528858286016104b9565b925050602083013567ffffffffffffffff8111156105495761054861039c565b5b610555858286016104b9565b9150509250929050565b600073ffffffffffffffffffffffffffffffffffffffff82169050919050565b600061058a8261055f565b9050919050565b61059a8161057f565b82525050565b60006020820190506105b56000830184610591565b92915050565b6105c481610359565b81146105cf57600080fd5b50565b6000813590506105e1816105bb565b92915050565b6000602082840312156105fd576105fc610397565b5b600061060b848285016105d2565b91505092915050565b600081519050919050565b600082825260208201905092915050565b60005b8381101561064e578082015181840152602081019050610633565b8381111561065d576000848401525b50505050565b600061066e82610614565b610678818561061f565b9350610688818560208601610630565b610691816103ab565b840191505092915050565b60006060820190506106b16000830186610363565b81810360208301526106c38185610663565b905081810360408301526106d78184610663565b9050949350505050565b7f4e487b7100000000000000000000000000000000000000000000000000000000600052601160045260246000fd5b600061071b82610359565b91507fffffffffffffffffffffffffffffffffffffffffffffffffffffffffffffffff82141561074e5761074d6106e1565b5b600182019050919050565b7f4e487b7100000000000000000000000000000000000000000000000000000000600052602260045260246000fd5b600060028204905060018216806107a057607f821691505b602082108114156107b4576107b3610759565b5b5091905056fea264697066735822122099cd75fd7ddba48cd71bcda38b4651efb44e308662a02557e629ca49a1336be764736f6c634300080a0033",
  "immutableReferences": {},
  "source": "pragma solidity ^0.8.10;\r\n\r\ncontract Contacts {\r\n  uint public count = 0; // state variable\r\n\r\n  struct Contact {\r\n    uint id;\r\n    string name;\r\n    string phone;\r\n  }\r\n\r\n  constructor() public {\r\n    createContact('Zafar Saleem', '123123123');\r\n  }\r\n  \r\n  mapping(uint => Contact) public contacts;\r\n\r\n\r\n     function getSender() public view\r\n            returns (address)\r\n    {\r\n        return msg.sender;\r\n    }\r\n\r\n  function createContact(string memory _name, string memory _phone) public {\r\n    count++;\r\n    contacts[count] = Contact(count, _name, _phone);\r\n  }\r\n}",
  "sourcePath": "C:\\Users\\elias.sohbi\\Documents\\blockchain-node\\blockchain-node-api\\contracts\\Contacts.sol",
  "compiler": {
    "name": "solc",
    "version": "0.8.10+commit.fc410830.Emscripten.clang"
  },
  "schemaVersion": "3.4.10",
  "updatedAt": "2022-11-28T16:57:07.040Z",
  "networkType": "ethereum",
  "devdoc": {
    "kind": "dev",
    "methods": {},
    "version": 1
  },
  "userdoc": {
    "kind": "user",
    "methods": {},
    "version": 1
  }
}